{"abi":[{"type":"constructor","inputs":[{"name":"name_","type":"string","internalType":"string"},{"name":"symbol_","type":"string","internalType":"string"},{"name":"baseURI_","type":"string","internalType":"string"},{"name":"owner_","type":"address","internalType":"address"},{"name":"minter_","type":"address","internalType":"address"},{"name":"startTokenId_","type":"uint256","internalType":"uint256"}],"stateMutability":"nonpayable"},{"type":"function","name":"POOL_SIZE","inputs":[],"outputs":[{"name":"","type":"uint8","internalType":"uint8"}],"stateMutability":"view"},{"type":"function","name":"approve","inputs":[{"name":"to","type":"address","internalType":"address"},{"name":"tokenId","type":"uint256","internalType":"uint256"}],"outputs":[],"stateMutability":"nonpayable"},{"type":"function","name":"balanceOf","inputs":[{"name":"owner","type":"address","internalType":"address"}],"outputs":[{"name":"","type":"uint256","internalType":"uint256"}],"stateMutability":"view"},{"type":"function","name":"baseURI","inputs":[],"outputs":[{"name":"","type":"string","internalType":"string"}],"stateMutability":"view"},{"type":"function","name":"claimUsed","inputs":[{"name":"claimId","type":"bytes32","internalType":"bytes32"}],"outputs":[{"name":"used","type":"bool","internalType":"bool"}],"stateMutability":"view"},{"type":"function","name":"getApproved","inputs":[{"name":"tokenId","type":"uint256","internalType":"uint256"}],"outputs":[{"name":"","type":"address","internalType":"address"}],"stateMutability":"view"},{"type":"function","name":"isApprovedForAll","inputs":[{"name":"owner","type":"address","internalType":"address"},{"name":"operator","type":"address","internalType":"address"}],"outputs":[{"name":"","type":"bool","internalType":"bool"}],"stateMutability":"view"},{"type":"function","name":"mintTo","inputs":[{"name":"to","type":"address","internalType":"address"},{"name":"gameId","type":"uint256","internalType":"uint256"},{"name":"claimId","type":"bytes32","internalType":"bytes32"}],"outputs":[],"stateMutability":"nonpayable"},{"type":"function","name":"minter","inputs":[],"outputs":[{"name":"","type":"address","internalType":"address"}],"stateMutability":"view"},{"type":"function","name":"name","inputs":[],"outputs":[{"name":"","type":"string","internalType":"string"}],"stateMutability":"view"},{"type":"function","name":"nextTokenId","inputs":[],"outputs":[{"name":"","type":"uint256","internalType":"uint256"}],"stateMutability":"view"},{"type":"function","name":"owner","inputs":[],"outputs":[{"name":"","type":"address","internalType":"address"}],"stateMutability":"view"},{"type":"function","name":"ownerOf","inputs":[{"name":"tokenId","type":"uint256","internalType":"uint256"}],"outputs":[{"name":"","type":"address","internalType":"address"}],"stateMutability":"view"},{"type":"function","name":"paused","inputs":[],"outputs":[{"name":"","type":"bool","internalType":"bool"}],"stateMutability":"view"},{"type":"function","name":"renounceOwnership","inputs":[],"outputs":[],"stateMutability":"nonpayable"},{"type":"function","name":"safeTransferFrom","inputs":[{"name":"from","type":"address","internalType":"address"},{"name":"to","type":"address","internalType":"address"},{"name":"tokenId","type":"uint256","internalType":"uint256"}],"outputs":[],"stateMutability":"nonpayable"},{"type":"function","name":"safeTransferFrom","inputs":[{"name":"from","type":"address","internalType":"address"},{"name":"to","type":"address","internalType":"address"},{"name":"tokenId","type":"uint256","internalType":"uint256"},{"name":"data","type":"bytes","internalType":"bytes"}],"outputs":[],"stateMutability":"nonpayable"},{"type":"function","name":"setApprovalForAll","inputs":[{"name":"operator","type":"address","internalType":"address"},{"name":"approved","type":"bool","internalType":"bool"}],"outputs":[],"stateMutability":"nonpayable"},{"type":"function","name":"setBaseURI","inputs":[{"name":"newBaseURI","type":"string","internalType":"string"}],"outputs":[],"stateMutability":"nonpayable"},{"type":"function","name":"setMinter","inputs":[{"name":"newMinter","type":"address","internalType":"address"}],"outputs":[],"stateMutability":"nonpayable"},{"type":"function","name":"setPaused","inputs":[{"name":"paused_","type":"bool","internalType":"bool"}],"outputs":[],"stateMutability":"nonpayable"},{"type":"function","name":"supportsInterface","inputs":[{"name":"interfaceId","type":"bytes4","internalType":"bytes4"}],"outputs":[{"name":"","type":"bool","internalType":"bool"}],"stateMutability":"view"},{"type":"function","name":"symbol","inputs":[],"outputs":[{"name":"","type":"string","internalType":"string"}],"stateMutability":"view"},{"type":"function","name":"tokenToIndex","inputs":[{"name":"tokenId","type":"uint256","internalType":"uint256"}],"outputs":[{"name":"index","type":"uint8","internalType":"uint8"}],"stateMutability":"view"},{"type":"function","name":"tokenURI","inputs":[{"name":"tokenId","type":"uint256","internalType":"uint256"}],"outputs":[{"name":"","type":"string","internalType":"string"}],"stateMutability":"view"},{"type":"function","name":"transferFrom","inputs":[{"name":"from","type":"address","internalType":"address"},{"name":"to","type":"address","internalType":"address"},{"name":"tokenId","type":"uint256","internalType":"uint256"}],"outputs":[],"stateMutability":"nonpayable"},{"type":"function","name":"transferOwnership","inputs":[{"name":"newOwner","type":"address","internalType":"address"}],"outputs":[],"stateMutability":"nonpayable"},{"type":"event","name":"Approval","inputs":[{"name":"owner","type":"address","indexed":true,"internalType":"address"},{"name":"approved","type":"address","indexed":true,"internalType":"address"},{"name":"tokenId","type":"uint256","indexed":true,"internalType":"uint256"}],"anonymous":false},{"type":"event","name":"ApprovalForAll","inputs":[{"name":"owner","type":"address","indexed":true,"internalType":"address"},{"name":"operator","type":"address","indexed":true,"internalType":"address"},{"name":"approved","type":"bool","indexed":false,"internalType":"bool"}],"anonymous":false},{"type":"event","name":"Minted","inputs":[{"name":"to","type":"address","indexed":true,"internalType":"address"},{"name":"tokenId","type":"uint256","indexed":true,"internalType":"uint256"},{"name":"index","type":"uint8","indexed":false,"internalType":"uint8"},{"name":"gameId","type":"uint256","indexed":true,"internalType":"uint256"},{"name":"claimId","type":"bytes32","indexed":false,"internalType":"bytes32"}],"anonymous":false},{"type":"event","name":"OwnershipTransferred","inputs":[{"name":"previousOwner","type":"address","indexed":true,"internalType":"address"},{"name":"newOwner","type":"address","indexed":true,"internalType":"address"}],"anonymous":false},{"type":"event","name":"Transfer","inputs":[{"name":"from","type":"address","indexed":true,"internalType":"address"},{"name":"to","type":"address","indexed":true,"internalType":"address"},{"name":"tokenId","type":"uint256","indexed":true,"internalType":"uint256"}],"anonymous":false},{"type":"error","name":"ClaimAlreadyUsed","inputs":[]},{"type":"error","name":"ERC721IncorrectOwner","inputs":[{"name":"sender","type":"address","internalType":"address"},{"name":"tokenId","type":"uint256","internalType":"uint256"},{"name":"owner","type":"address","internalType":"address"}]},{"type":"error","name":"ERC721InsufficientApproval","inputs":[{"name":"operator","type":"address","internalType":"address"},{"name":"tokenId","type":"uint256","internalType":"uint256"}]},{"type":"error","name":"ERC721InvalidApprover","inputs":[{"name":"approver","type":"address","internalType":"address"}]},{"type":"error","name":"ERC721InvalidOperator","inputs":[{"name":"operator","type":"address","internalType":"address"}]},{"type":"error","name":"ERC721InvalidOwner","inputs":[{"name":"owner","type":"address","internalType":"address"}]},{"type":"error","name":"ERC721InvalidReceiver","inputs":[{"name":"receiver","type":"address","internalType":"address"}]},{"type":"error","name":"ERC721InvalidSender","inputs":[{"name":"sender","type":"address","internalType":"address"}]},{"type":"error","name":"ERC721NonexistentToken","inputs":[{"name":"tokenId","type":"uint256","internalType":"uint256"}]},{"type":"error","name":"NotMinter","inputs":[]},{"type":"error","name":"OwnableInvalidOwner","inputs":[{"name":"owner","type":"address","internalType":"address"}]},{"type":"error","name":"OwnableUnauthorizedAccount","inputs":[{"name":"account","type":"address","internalType":"address"}]},{"type":"error","name":"Paused","inputs":[]},{"type":"error","name":"ZeroAddress","inputs":[]}],"bytecode":{"object":"0x608060405234801562000010575f80fd5b5060405162001ba038038062001ba0833981016040819052620000339162000238565b8286865f6200004383826200037a565b5060016200005282826200037a565b5050506001600160a01b0381166200008357604051631e4fbdf760e01b81525f600482015260240160405180910390fd5b6200008e816200010a565b506001600160a01b0382161580620000ad57506001600160a01b038316155b15620000cc5760405163d92e233d60e01b815260040160405180910390fd5b6008620000da85826200037a565b50600980546001600160a01b0319166001600160a01b039390931692909217909155600755506200044692505050565b600680546001600160a01b038381166001600160a01b0319831681179093556040519116919082907f8be0079c531659141344cd1fd0a4f28419497f9722a3daafe3b4186f6b6457e0905f90a35050565b634e487b7160e01b5f52604160045260245ffd5b5f82601f8301126200017f575f80fd5b81516001600160401b03808211156200019c576200019c6200015b565b604051601f8301601f19908116603f01168101908282118183101715620001c757620001c76200015b565b8160405283815260209250866020858801011115620001e4575f80fd5b5f91505b83821015620002075785820183015181830184015290820190620001e8565b5f602085830101528094505050505092915050565b80516001600160a01b038116811462000233575f80fd5b919050565b5f805f805f8060c087890312156200024e575f80fd5b86516001600160401b038082111562000265575f80fd5b620002738a838b016200016f565b9750602089015191508082111562000289575f80fd5b620002978a838b016200016f565b96506040890151915080821115620002ad575f80fd5b50620002bc89828a016200016f565b945050620002cd606088016200021c565b9250620002dd608088016200021c565b915060a087015190509295509295509295565b600181811c908216806200030557607f821691505b6020821081036200032457634e487b7160e01b5f52602260045260245ffd5b50919050565b601f8211156200037557805f5260205f20601f840160051c81016020851015620003515750805b601f840160051c820191505b8181101562000372575f81556001016200035d565b50505b505050565b81516001600160401b038111156200039657620003966200015b565b620003ae81620003a78454620002f0565b846200032a565b602080601f831160018114620003e4575f8415620003cc5750858301515b5f19600386901b1c1916600185901b1785556200043e565b5f85815260208120601f198616915b828110156200041457888601518255948401946001909101908401620003f3565b50858210156200043257878501515f19600388901b60f8161c191681555b505060018460011b0185555b505050505050565b61174c80620004545f395ff3fe608060405234801561000f575f80fd5b50600436106101a1575f3560e01c80636fb66f2d116100f3578063a22cb46511610093578063c87b56dd1161006e578063c87b56dd14610392578063e985e9c5146103a5578063f2fde38b146103b8578063fca3b5aa146103cb575f80fd5b8063a22cb4651461034a578063b88d4fde1461035d578063c401d1a914610370575f80fd5b806371bf644e116100ce57806371bf644e1461030657806375794a3c146103285780638da5cb5b1461033157806395d89b4114610342575f80fd5b80636fb66f2d146102ca57806370a08231146102dd578063715018a6146102fe575f80fd5b806323b872dd1161015e57806355f804b31161013957806355f804b3146102885780635c975abb1461029b5780636352211e146102af5780636c0360eb146102c2575f80fd5b806323b872dd1461024857806342842e0e1461025b5780634f9daac61461026e575f80fd5b806301ffc9a7146101a557806306fdde03146101cd57806307546172146101e2578063081812fc1461020d578063095ea7b31461022057806316c38b3c14610235575b5f80fd5b6101b86101b3366004611189565b6103de565b60405190151581526020015b60405180910390f35b6101d561042f565b6040516101c491906111f8565b6009546101f5906001600160a01b031681565b6040516001600160a01b0390911681526020016101c4565b6101f561021b36600461120a565b6104be565b61023361022e36600461123c565b6104e5565b005b610233610243366004611273565b6104f4565b61023361025636600461128c565b61051a565b61023361026936600461128c565b6105a8565b610276600981565b60405160ff90911681526020016101c4565b6102336102963660046112c5565b6105c7565b6009546101b890600160a01b900460ff1681565b6101f56102bd36600461120a565b6105dc565b6101d56105e6565b6102336102d8366004611331565b610672565b6102f06102eb366004611361565b6107c9565b6040519081526020016101c4565b61023361080e565b61027661031436600461120a565b600a6020525f908152604090205460ff1681565b6102f060075481565b6006546001600160a01b03166101f5565b6101d5610821565b61023361035836600461137a565b610830565b61023361036b3660046113bf565b61083b565b6101b861037e36600461120a565b600b6020525f908152604090205460ff1681565b6101d56103a036600461120a565b610853565b6101b86103b3366004611494565b6108d1565b6102336103c6366004611361565b6108fe565b6102336103d9366004611361565b61093b565b5f6001600160e01b031982166380ac58cd60e01b148061040e57506001600160e01b03198216635b5e139f60e01b145b8061042957506301ffc9a760e01b6001600160e01b03198316145b92915050565b60605f805461043d906114bc565b80601f0160208091040260200160405190810160405280929190818152602001828054610469906114bc565b80156104b45780601f1061048b576101008083540402835291602001916104b4565b820191905f5260205f20905b81548152906001019060200180831161049757829003601f168201915b5050505050905090565b5f6104c88261098c565b505f828152600460205260409020546001600160a01b0316610429565b6104f08282336109c4565b5050565b6104fc6109d1565b60098054911515600160a01b0260ff60a01b19909216919091179055565b6001600160a01b03821661054857604051633250574960e11b81525f60048201526024015b60405180910390fd5b5f6105548383336109fe565b9050836001600160a01b0316816001600160a01b0316146105a2576040516364283d7b60e01b81526001600160a01b038086166004830152602482018490528216604482015260640161053f565b50505050565b6105c283838360405180602001604052805f81525061083b565b505050565b6105cf6109d1565b60086105c2828483611538565b5f6104298261098c565b600880546105f3906114bc565b80601f016020809104026020016040519081016040528092919081815260200182805461061f906114bc565b801561066a5780601f106106415761010080835404028352916020019161066a565b820191905f5260205f20905b81548152906001019060200180831161064d57829003601f168201915b505050505081565b6009546001600160a01b0316331461069d57604051633e34a41b60e21b815260040160405180910390fd5b600954600160a01b900460ff16156106c8576040516313d0ff5960e31b815260040160405180910390fd5b6001600160a01b0383166106ef5760405163d92e233d60e01b815260040160405180910390fd5b5f818152600b602052604090205460ff161561071e5760405163ead7077b60e01b815260040160405180910390fd5b60078054600181019091555f61073685838686610af0565b5f838152600a60209081526040808320805460ff861660ff1991821617909155878452600b9092529091208054909116600117905590506107778583610b70565b6040805160ff8316815260208101859052859184916001600160a01b038916917f6653c7de8ffa7b72d5beae80386ea419e0c6f2266fe0c34995f47e600bd8d51b910160405180910390a45050505050565b5f6001600160a01b0382166107f3576040516322718ad960e21b81525f600482015260240161053f565b506001600160a01b03165f9081526003602052604090205490565b6108166109d1565b61081f5f610b89565b565b60606001805461043d906114bc565b6104f0338383610bda565b61084684848461051a565b6105a23385858585610ca1565b5f818152600260205260409020546060906001600160a01b031661088d57604051637e27328960e01b81526004810183905260240161053f565b5f828152600a602052604090205460ff1660086108a982610dc9565b6040516020016108ba9291906115f2565b604051602081830303815290604052915050919050565b6001600160a01b039182165f90815260056020908152604080832093909416825291909152205460ff1690565b6109066109d1565b6001600160a01b03811661092f57604051631e4fbdf760e01b81525f600482015260240161053f565b61093881610b89565b50565b6109436109d1565b6001600160a01b03811661096a5760405163d92e233d60e01b815260040160405180910390fd5b600980546001600160a01b0319166001600160a01b0392909216919091179055565b5f818152600260205260408120546001600160a01b03168061042957604051637e27328960e01b81526004810184905260240161053f565b6105c28383836001610e59565b6006546001600160a01b0316331461081f5760405163118cdaa760e01b815233600482015260240161053f565b5f828152600260205260408120546001600160a01b0390811690831615610a2a57610a2a818486610f5d565b6001600160a01b03811615610a6457610a455f855f80610e59565b6001600160a01b0381165f90815260036020526040902080545f190190555b6001600160a01b03851615610a92576001600160a01b0385165f908152600360205260409020805460010190555b5f8481526002602052604080822080546001600160a01b0319166001600160a01b0389811691821790925591518793918516917fddf252ad1be2c89b69c2b068fc378daa952ba7f163c4a11628f55a4df523b3ef91a4949350505050565b604080514460208201524291810191909152606085811b6bffffffffffffffffffffffff191690820152607481018490526094810183905260b481018290525f90819060d40160408051601f1981840301815291905280516020909101209050610b5b600982611685565b610b669060016116a4565b9695505050505050565b6104f0828260405180602001604052805f815250610fc1565b600680546001600160a01b038381166001600160a01b0319831681179093556040519116919082907f8be0079c531659141344cd1fd0a4f28419497f9722a3daafe3b4186f6b6457e0905f90a35050565b6001600160a01b038316610c035760405163a9fbf51f60e01b81525f600482015260240161053f565b6001600160a01b038216610c3557604051630b61174360e31b81526001600160a01b038316600482015260240161053f565b6001600160a01b038381165f81815260056020908152604080832094871680845294825291829020805460ff191686151590811790915591519182527f17307eab39ab6107e8899845ad3d59bd9653f200f220920489ca2b5937696c31910160405180910390a3505050565b6001600160a01b0383163b15610dc257604051630a85bd0160e11b81526001600160a01b0384169063150b7a0290610ce39088908890879087906004016116c9565b6020604051808303815f875af1925050508015610d1d575060408051601f3d908101601f19168201909252610d1a918101906116fb565b60015b610d84573d808015610d4a576040519150601f19603f3d011682016040523d82523d5f602084013e610d4f565b606091505b5080515f03610d7c57604051633250574960e11b81526001600160a01b038516600482015260240161053f565b805160208201fd5b6001600160e01b03198116630a85bd0160e11b14610dc057604051633250574960e11b81526001600160a01b038516600482015260240161053f565b505b5050505050565b60605f610dd583610fd8565b60010190505f8167ffffffffffffffff811115610df457610df46113ab565b6040519080825280601f01601f191660200182016040528015610e1e576020820181803683370190505b5090508181016020015b5f19016f181899199a1a9b1b9c1cb0b131b232b360811b600a86061a8153600a8504945084610e2857509392505050565b8080610e6d57506001600160a01b03821615155b15610f2e575f610e7c8461098c565b90506001600160a01b03831615801590610ea85750826001600160a01b0316816001600160a01b031614155b8015610ebb5750610eb981846108d1565b155b15610ee45760405163a9fbf51f60e01b81526001600160a01b038416600482015260240161053f565b8115610f2c5783856001600160a01b0316826001600160a01b03167f8c5be1e5ebec7d5bd14f71427d1e84f3dd0314c0f7b2291e5b200ac8c7c3b92560405160405180910390a45b505b50505f90815260046020526040902080546001600160a01b0319166001600160a01b0392909216919091179055565b610f688383836110af565b6105c2576001600160a01b038316610f9657604051637e27328960e01b81526004810182905260240161053f565b60405163177e802f60e01b81526001600160a01b03831660048201526024810182905260440161053f565b610fcb8383611113565b6105c2335f858585610ca1565b5f8072184f03e93ff9f4daa797ed6e38ed64bf6a1f0160401b83106110165772184f03e93ff9f4daa797ed6e38ed64bf6a1f0160401b830492506040015b6d04ee2d6d415b85acef81000000008310611042576d04ee2d6d415b85acef8100000000830492506020015b662386f26fc10000831061106057662386f26fc10000830492506010015b6305f5e1008310611078576305f5e100830492506008015b612710831061108c57612710830492506004015b6064831061109e576064830492506002015b600a83106104295760010192915050565b5f6001600160a01b0383161580159061110b5750826001600160a01b0316846001600160a01b031614806110e857506110e884846108d1565b8061110b57505f828152600460205260409020546001600160a01b038481169116145b949350505050565b6001600160a01b03821661113c57604051633250574960e11b81525f600482015260240161053f565b5f61114883835f6109fe565b90506001600160a01b038116156105c2576040516339e3563760e11b81525f600482015260240161053f565b6001600160e01b031981168114610938575f80fd5b5f60208284031215611199575f80fd5b81356111a481611174565b9392505050565b5f5b838110156111c55781810151838201526020016111ad565b50505f910152565b5f81518084526111e48160208601602086016111ab565b601f01601f19169290920160200192915050565b602081525f6111a460208301846111cd565b5f6020828403121561121a575f80fd5b5035919050565b80356001600160a01b0381168114611237575f80fd5b919050565b5f806040838503121561124d575f80fd5b61125683611221565b946020939093013593505050565b80358015158114611237575f80fd5b5f60208284031215611283575f80fd5b6111a482611264565b5f805f6060848603121561129e575f80fd5b6112a784611221565b92506112b560208501611221565b9150604084013590509250925092565b5f80602083850312156112d6575f80fd5b823567ffffffffffffffff808211156112ed575f80fd5b818501915085601f830112611300575f80fd5b81358181111561130e575f80fd5b86602082850101111561131f575f80fd5b60209290920196919550909350505050565b5f805f60608486031215611343575f80fd5b61134c84611221565b95602085013595506040909401359392505050565b5f60208284031215611371575f80fd5b6111a482611221565b5f806040838503121561138b575f80fd5b61139483611221565b91506113a260208401611264565b90509250929050565b634e487b7160e01b5f52604160045260245ffd5b5f805f80608085870312156113d2575f80fd5b6113db85611221565b93506113e960208601611221565b925060408501359150606085013567ffffffffffffffff8082111561140c575f80fd5b818701915087601f83011261141f575f80fd5b813581811115611431576114316113ab565b604051601f8201601f19908116603f01168101908382118183101715611459576114596113ab565b816040528281528a6020848701011115611471575f80fd5b826020860160208301375f60208483010152809550505050505092959194509250565b5f80604083850312156114a5575f80fd5b6114ae83611221565b91506113a260208401611221565b600181811c908216806114d057607f821691505b6020821081036114ee57634e487b7160e01b5f52602260045260245ffd5b50919050565b601f8211156105c257805f5260205f20601f840160051c810160208510156115195750805b601f840160051c820191505b81811015610dc2575f8155600101611525565b67ffffffffffffffff831115611550576115506113ab565b6115648361155e83546114bc565b836114f4565b5f601f841160018114611595575f851561157e5750838201355b5f19600387901b1c1916600186901b178355610dc2565b5f83815260208120601f198716915b828110156115c457868501358255602094850194600190920191016115a4565b50868210156115e0575f1960f88860031b161c19848701351681555b505060018560011b0183555050505050565b5f8084546115ff816114bc565b60018281168015611617576001811461162c57611658565b60ff1984168752821515830287019450611658565b885f526020805f205f5b8581101561164f5781548a820152908401908201611636565b50505082870194505b50505050835161166c8183602088016111ab565b64173539b7b760d91b9101908152600501949350505050565b5f8261169f57634e487b7160e01b5f52601260045260245ffd5b500690565b60ff818116838216019081111561042957634e487b7160e01b5f52601160045260245ffd5b6001600160a01b03858116825284166020820152604081018390526080606082018190525f90610b66908301846111cd565b5f6020828403121561170b575f80fd5b81516111a48161117456fea2646970667358221220613c8da5522447a353adaec323ad80db456f963a8c421fd61c6fc730ee82e87464736f6c63430008180033","linkReferences":{}},"methodIdentifiers":{"POOL_SIZE()":"4f9daac6","approve(address,uint256)":"095ea7b3","balanceOf(address)":"70a08231","baseURI()":"6c0360eb","claimUsed(bytes32)":"c401d1a9","getApproved(uint256)":"081812fc","isApprovedForAll(address,address)":"e985e9c5","mintTo(address,uint256,bytes32)":"6fb66f2d","minter()":"07546172","name()":"06fdde03","nextTokenId()":"75794a3c","owner()":"8da5cb5b","ownerOf(uint256)":"6352211e","paused()":"5c975abb","renounceOwnership()":"715018a6","safeTransferFrom(address,address,uint256)":"42842e0e","safeTransferFrom(address,address,uint256,bytes)":"b88d4fde","setApprovalForAll(address,bool)":"a22cb465","setBaseURI(string)":"55f804b3","setMinter(address)":"fca3b5aa","setPaused(bool)":"16c38b3c","supportsInterface(bytes4)":"01ffc9a7","symbol()":"95d89b41","tokenToIndex(uint256)":"71bf644e","tokenURI(uint256)":"c87b56dd","transferFrom(address,address,uint256)":"23b872dd","transferOwnership(address)":"f2fde38b"},"id":35}